{
    "_format": "hh-sol-artifact-1",
    "contractName": "TinderERC721",
    "sourceName": "contracts/TinderERC721.sol",
    "abi": [
        {
            "inputs": [],
            "stateMutability": "nonpayable",
            "type": "constructor"
        },
        {
            "anonymous": false,
            "inputs": [
                {
                    "indexed": true,
                    "internalType": "address",
                    "name": "owner",
                    "type": "address"
                },
                {
                    "indexed": true,
                    "internalType": "address",
                    "name": "approved",
                    "type": "address"
                },
                {
                    "indexed": true,
                    "internalType": "uint256",
                    "name": "tokenId",
                    "type": "uint256"
                }
            ],
            "name": "Approval",
            "type": "event"
        },
        {
            "anonymous": false,
            "inputs": [
                {
                    "indexed": true,
                    "internalType": "address",
                    "name": "owner",
                    "type": "address"
                },
                {
                    "indexed": true,
                    "internalType": "address",
                    "name": "operator",
                    "type": "address"
                },
                {
                    "indexed": false,
                    "internalType": "bool",
                    "name": "approved",
                    "type": "bool"
                }
            ],
            "name": "ApprovalForAll",
            "type": "event"
        },
        {
            "anonymous": false,
            "inputs": [
                {
                    "indexed": true,
                    "internalType": "address",
                    "name": "from",
                    "type": "address"
                },
                {
                    "indexed": true,
                    "internalType": "address",
                    "name": "to",
                    "type": "address"
                },
                {
                    "indexed": true,
                    "internalType": "uint256",
                    "name": "tokenId",
                    "type": "uint256"
                }
            ],
            "name": "Transfer",
            "type": "event"
        },
        {
            "inputs": [
                {
                    "internalType": "address",
                    "name": "to",
                    "type": "address"
                },
                {
                    "internalType": "uint256",
                    "name": "tokenId",
                    "type": "uint256"
                }
            ],
            "name": "approve",
            "outputs": [],
            "stateMutability": "nonpayable",
            "type": "function"
        },
        {
            "inputs": [
                {
                    "internalType": "address",
                    "name": "owner",
                    "type": "address"
                }
            ],
            "name": "balanceOf",
            "outputs": [
                {
                    "internalType": "uint256",
                    "name": "",
                    "type": "uint256"
                }
            ],
            "stateMutability": "view",
            "type": "function"
        },
        {
            "inputs": [
                {
                    "internalType": "uint256",
                    "name": "tokenId",
                    "type": "uint256"
                }
            ],
            "name": "getApproved",
            "outputs": [
                {
                    "internalType": "address",
                    "name": "",
                    "type": "address"
                }
            ],
            "stateMutability": "view",
            "type": "function"
        },
        {
            "inputs": [
                {
                    "internalType": "address",
                    "name": "owner",
                    "type": "address"
                },
                {
                    "internalType": "address",
                    "name": "operator",
                    "type": "address"
                }
            ],
            "name": "isApprovedForAll",
            "outputs": [
                {
                    "internalType": "bool",
                    "name": "",
                    "type": "bool"
                }
            ],
            "stateMutability": "view",
            "type": "function"
        },
        {
            "inputs": [
                {
                    "internalType": "address",
                    "name": "_userOne",
                    "type": "address"
                },
                {
                    "internalType": "address",
                    "name": "_userTwo",
                    "type": "address"
                },
                {
                    "internalType": "string",
                    "name": "tokenURI",
                    "type": "string"
                }
            ],
            "name": "minNFT",
            "outputs": [],
            "stateMutability": "nonpayable",
            "type": "function"
        },
        {
            "inputs": [],
            "name": "name",
            "outputs": [
                {
                    "internalType": "string",
                    "name": "",
                    "type": "string"
                }
            ],
            "stateMutability": "view",
            "type": "function"
        },
        {
            "inputs": [
                {
                    "internalType": "uint256",
                    "name": "tokenId",
                    "type": "uint256"
                }
            ],
            "name": "ownerOf",
            "outputs": [
                {
                    "internalType": "address",
                    "name": "",
                    "type": "address"
                }
            ],
            "stateMutability": "view",
            "type": "function"
        },
        {
            "inputs": [
                {
                    "internalType": "address",
                    "name": "from",
                    "type": "address"
                },
                {
                    "internalType": "address",
                    "name": "to",
                    "type": "address"
                },
                {
                    "internalType": "uint256",
                    "name": "tokenId",
                    "type": "uint256"
                }
            ],
            "name": "safeTransferFrom",
            "outputs": [],
            "stateMutability": "nonpayable",
            "type": "function"
        },
        {
            "inputs": [
                {
                    "internalType": "address",
                    "name": "from",
                    "type": "address"
                },
                {
                    "internalType": "address",
                    "name": "to",
                    "type": "address"
                },
                {
                    "internalType": "uint256",
                    "name": "tokenId",
                    "type": "uint256"
                },
                {
                    "internalType": "bytes",
                    "name": "data",
                    "type": "bytes"
                }
            ],
            "name": "safeTransferFrom",
            "outputs": [],
            "stateMutability": "nonpayable",
            "type": "function"
        },
        {
            "inputs": [
                {
                    "internalType": "address",
                    "name": "operator",
                    "type": "address"
                },
                {
                    "internalType": "bool",
                    "name": "approved",
                    "type": "bool"
                }
            ],
            "name": "setApprovalForAll",
            "outputs": [],
            "stateMutability": "nonpayable",
            "type": "function"
        },
        {
            "inputs": [
                {
                    "internalType": "bytes4",
                    "name": "interfaceId",
                    "type": "bytes4"
                }
            ],
            "name": "supportsInterface",
            "outputs": [
                {
                    "internalType": "bool",
                    "name": "",
                    "type": "bool"
                }
            ],
            "stateMutability": "view",
            "type": "function"
        },
        {
            "inputs": [],
            "name": "symbol",
            "outputs": [
                {
                    "internalType": "string",
                    "name": "",
                    "type": "string"
                }
            ],
            "stateMutability": "view",
            "type": "function"
        },
        {
            "inputs": [
                {
                    "internalType": "uint256",
                    "name": "tokenId",
                    "type": "uint256"
                }
            ],
            "name": "tokenURI",
            "outputs": [
                {
                    "internalType": "string",
                    "name": "",
                    "type": "string"
                }
            ],
            "stateMutability": "view",
            "type": "function"
        },
        {
            "inputs": [
                {
                    "internalType": "address",
                    "name": "from",
                    "type": "address"
                },
                {
                    "internalType": "address",
                    "name": "to",
                    "type": "address"
                },
                {
                    "internalType": "uint256",
                    "name": "tokenId",
                    "type": "uint256"
                }
            ],
            "name": "transferFrom",
            "outputs": [],
            "stateMutability": "nonpayable",
            "type": "function"
        }
    ],
    "bytecode": "0x60806040523480156200001157600080fd5b506040518060400160405280600b81526020017f4d6174636820546f6b656e0000000000000000000000000000000000000000008152506040518060400160405280600381526020017f4d544b000000000000000000000000000000000000000000000000000000000081525081600090816200008f919062000324565b508060019081620000a1919062000324565b5050506200040b565b600081519050919050565b7f4e487b7100000000000000000000000000000000000000000000000000000000600052604160045260246000fd5b7f4e487b7100000000000000000000000000000000000000000000000000000000600052602260045260246000fd5b600060028204905060018216806200012c57607f821691505b602082108103620001425762000141620000e4565b5b50919050565b60008190508160005260206000209050919050565b60006020601f8301049050919050565b600082821b905092915050565b600060088302620001ac7fffffffffffffffffffffffffffffffffffffffffffffffffffffffffffffffff826200016d565b620001b886836200016d565b95508019841693508086168417925050509392505050565b6000819050919050565b6000819050919050565b600062000205620001ff620001f984620001d0565b620001da565b620001d0565b9050919050565b6000819050919050565b6200022183620001e4565b6200023962000230826200020c565b8484546200017a565b825550505050565b600090565b6200025062000241565b6200025d81848462000216565b505050565b5b8181101562000285576200027960008262000246565b60018101905062000263565b5050565b601f821115620002d4576200029e8162000148565b620002a9846200015d565b81016020851015620002b9578190505b620002d1620002c8856200015d565b83018262000262565b50505b505050565b600082821c905092915050565b6000620002f960001984600802620002d9565b1980831691505092915050565b6000620003148383620002e6565b9150826002028217905092915050565b6200032f82620000aa565b67ffffffffffffffff8111156200034b576200034a620000b5565b5b62000357825462000113565b6200036482828562000289565b600060209050601f8311600181146200039c576000841562000387578287015190505b62000393858262000306565b86555062000403565b601f198416620003ac8662000148565b60005b82811015620003d657848901518255600182019150602085019450602081019050620003af565b86831015620003f65784890151620003f2601f891682620002e6565b8355505b6001600288020188555050505b505050505050565b612c8f806200041b6000396000f3fe608060405234801561001057600080fd5b50600436106100ea5760003560e01c806370a082311161008c578063b88d4fde11610066578063b88d4fde1461025b578063c87b56dd14610277578063e985e9c5146102a7578063f824c1e5146102d7576100ea565b806370a08231146101f157806395d89b4114610221578063a22cb4651461023f576100ea565b8063095ea7b3116100c8578063095ea7b31461016d57806323b872dd1461018957806342842e0e146101a55780636352211e146101c1576100ea565b806301ffc9a7146100ef57806306fdde031461011f578063081812fc1461013d575b600080fd5b61010960048036038101906101049190611ad4565b6102f3565b6040516101169190611b1c565b60405180910390f35b6101276103d5565b6040516101349190611bc7565b60405180910390f35b61015760048036038101906101529190611c1f565b610467565b6040516101649190611c8d565b60405180910390f35b61018760048036038101906101829190611cd4565b6104ad565b005b6101a3600480360381019061019e9190611d14565b6105c4565b005b6101bf60048036038101906101ba9190611d14565b610624565b005b6101db60048036038101906101d69190611c1f565b610644565b6040516101e89190611c8d565b60405180910390f35b61020b60048036038101906102069190611d67565b6106ca565b6040516102189190611da3565b60405180910390f35b610229610781565b6040516102369190611bc7565b60405180910390f35b61025960048036038101906102549190611dea565b610813565b005b61027560048036038101906102709190611f5f565b610829565b005b610291600480360381019061028c9190611c1f565b61088b565b60405161029e9190611bc7565b60405180910390f35b6102c160048036038101906102bc9190611fe2565b61099d565b6040516102ce9190611b1c565b60405180910390f35b6102f160048036038101906102ec91906120c3565b610a31565b005b60007f80ac58cd000000000000000000000000000000000000000000000000000000007bffffffffffffffffffffffffffffffffffffffffffffffffffffffff1916827bffffffffffffffffffffffffffffffffffffffffffffffffffffffff191614806103be57507f5b5e139f000000000000000000000000000000000000000000000000000000007bffffffffffffffffffffffffffffffffffffffffffffffffffffffff1916827bffffffffffffffffffffffffffffffffffffffffffffffffffffffff1916145b806103ce57506103cd82610a81565b5b9050919050565b6060600080546103e490612161565b80601f016020809104026020016040519081016040528092919081815260200182805461041090612161565b801561045d5780601f106104325761010080835404028352916020019161045d565b820191906000526020600020905b81548152906001019060200180831161044057829003601f168201915b5050505050905090565b600061047282610aeb565b6004600083815260200190815260200160002060009054906101000a900473ffffffffffffffffffffffffffffffffffffffff169050919050565b60006104b882610644565b90508073ffffffffffffffffffffffffffffffffffffffff168373ffffffffffffffffffffffffffffffffffffffff1603610528576040517f08c379a000000000000000000000000000000000000000000000000000000000815260040161051f90612204565b60405180910390fd5b8073ffffffffffffffffffffffffffffffffffffffff16610547610b36565b73ffffffffffffffffffffffffffffffffffffffff161480610576575061057581610570610b36565b61099d565b5b6105b5576040517f08c379a00000000000000000000000000000000000000000000000000000000081526004016105ac90612296565b60405180910390fd5b6105bf8383610b3e565b505050565b6105d56105cf610b36565b82610bf7565b610614576040517f08c379a000000000000000000000000000000000000000000000000000000000815260040161060b90612328565b60405180910390fd5b61061f838383610c8c565b505050565b61063f83838360405180602001604052806000815250610829565b505050565b60008061065083610f85565b9050600073ffffffffffffffffffffffffffffffffffffffff168173ffffffffffffffffffffffffffffffffffffffff16036106c1576040517f08c379a00000000000000000000000000000000000000000000000000000000081526004016106b890612394565b60405180910390fd5b80915050919050565b60008073ffffffffffffffffffffffffffffffffffffffff168273ffffffffffffffffffffffffffffffffffffffff160361073a576040517f08c379a000000000000000000000000000000000000000000000000000000000815260040161073190612426565b60405180910390fd5b600360008373ffffffffffffffffffffffffffffffffffffffff1673ffffffffffffffffffffffffffffffffffffffff168152602001908152602001600020549050919050565b60606001805461079090612161565b80601f01602080910402602001604051908101604052809291908181526020018280546107bc90612161565b80156108095780601f106107de57610100808354040283529160200191610809565b820191906000526020600020905b8154815290600101906020018083116107ec57829003601f168201915b5050505050905090565b61082561081e610b36565b8383610fc2565b5050565b61083a610834610b36565b83610bf7565b610879576040517f08c379a000000000000000000000000000000000000000000000000000000000815260040161087090612328565b60405180910390fd5b6108858484848461112e565b50505050565b606061089682610aeb565b60006006600084815260200190815260200160002080546108b690612161565b80601f01602080910402602001604051908101604052809291908181526020018280546108e290612161565b801561092f5780601f106109045761010080835404028352916020019161092f565b820191906000526020600020905b81548152906001019060200180831161091257829003601f168201915b50505050509050600061094061118a565b90506000815103610955578192505050610998565b60008251111561098a578082604051602001610972929190612482565b60405160208183030381529060405292505050610998565b610993846111a1565b925050505b919050565b6000600560008473ffffffffffffffffffffffffffffffffffffffff1673ffffffffffffffffffffffffffffffffffffffff16815260200190815260200160002060008373ffffffffffffffffffffffffffffffffffffffff1673ffffffffffffffffffffffffffffffffffffffff16815260200190815260200160002060009054906101000a900460ff16905092915050565b6000610a3d6007611209565b9050610a496007611217565b610a53848261122d565b610a5d818361124b565b610a676007611217565b610a71838261122d565b610a7b818361124b565b50505050565b60007f01ffc9a7000000000000000000000000000000000000000000000000000000007bffffffffffffffffffffffffffffffffffffffffffffffffffffffff1916827bffffffffffffffffffffffffffffffffffffffffffffffffffffffff1916149050919050565b610af4816112b8565b610b33576040517f08c379a0000000000000000000000000000000000000000000000000000000008152600401610b2a90612394565b60405180910390fd5b50565b600033905090565b816004600083815260200190815260200160002060006101000a81548173ffffffffffffffffffffffffffffffffffffffff021916908373ffffffffffffffffffffffffffffffffffffffff160217905550808273ffffffffffffffffffffffffffffffffffffffff16610bb183610644565b73ffffffffffffffffffffffffffffffffffffffff167f8c5be1e5ebec7d5bd14f71427d1e84f3dd0314c0f7b2291e5b200ac8c7c3b92560405160405180910390a45050565b600080610c0383610644565b90508073ffffffffffffffffffffffffffffffffffffffff168473ffffffffffffffffffffffffffffffffffffffff161480610c455750610c44818561099d565b5b80610c8357508373ffffffffffffffffffffffffffffffffffffffff16610c6b84610467565b73ffffffffffffffffffffffffffffffffffffffff16145b91505092915050565b8273ffffffffffffffffffffffffffffffffffffffff16610cac82610644565b73ffffffffffffffffffffffffffffffffffffffff1614610d02576040517f08c379a0000000000000000000000000000000000000000000000000000000008152600401610cf990612518565b60405180910390fd5b600073ffffffffffffffffffffffffffffffffffffffff168273ffffffffffffffffffffffffffffffffffffffff1603610d71576040517f08c379a0000000000000000000000000000000000000000000000000000000008152600401610d68906125aa565b60405180910390fd5b610d7e83838360016112f9565b8273ffffffffffffffffffffffffffffffffffffffff16610d9e82610644565b73ffffffffffffffffffffffffffffffffffffffff1614610df4576040517f08c379a0000000000000000000000000000000000000000000000000000000008152600401610deb90612518565b60405180910390fd5b6004600082815260200190815260200160002060006101000a81549073ffffffffffffffffffffffffffffffffffffffff02191690556001600360008573ffffffffffffffffffffffffffffffffffffffff1673ffffffffffffffffffffffffffffffffffffffff168152602001908152602001600020600082825403925050819055506001600360008473ffffffffffffffffffffffffffffffffffffffff1673ffffffffffffffffffffffffffffffffffffffff16815260200190815260200160002060008282540192505081905550816002600083815260200190815260200160002060006101000a81548173ffffffffffffffffffffffffffffffffffffffff021916908373ffffffffffffffffffffffffffffffffffffffff160217905550808273ffffffffffffffffffffffffffffffffffffffff168473ffffffffffffffffffffffffffffffffffffffff167fddf252ad1be2c89b69c2b068fc378daa952ba7f163c4a11628f55a4df523b3ef60405160405180910390a4610f80838383600161141f565b505050565b60006002600083815260200190815260200160002060009054906101000a900473ffffffffffffffffffffffffffffffffffffffff169050919050565b8173ffffffffffffffffffffffffffffffffffffffff168373ffffffffffffffffffffffffffffffffffffffff1603611030576040517f08c379a000000000000000000000000000000000000000000000000000000000815260040161102790612616565b60405180910390fd5b80600560008573ffffffffffffffffffffffffffffffffffffffff1673ffffffffffffffffffffffffffffffffffffffff16815260200190815260200160002060008473ffffffffffffffffffffffffffffffffffffffff1673ffffffffffffffffffffffffffffffffffffffff16815260200190815260200160002060006101000a81548160ff0219169083151502179055508173ffffffffffffffffffffffffffffffffffffffff168373ffffffffffffffffffffffffffffffffffffffff167f17307eab39ab6107e8899845ad3d59bd9653f200f220920489ca2b5937696c31836040516111219190611b1c565b60405180910390a3505050565b611139848484610c8c565b61114584848484611425565b611184576040517f08c379a000000000000000000000000000000000000000000000000000000000815260040161117b906126a8565b60405180910390fd5b50505050565b606060405180602001604052806000815250905090565b60606111ac82610aeb565b60006111b661118a565b905060008151116111d65760405180602001604052806000815250611201565b806111e0846115ac565b6040516020016111f1929190612482565b6040516020818303038152906040525b915050919050565b600081600001549050919050565b6001816000016000828254019250508190555050565b61124782826040518060200160405280600081525061167a565b5050565b611254826112b8565b611293576040517f08c379a000000000000000000000000000000000000000000000000000000000815260040161128a9061273a565b60405180910390fd5b806006600084815260200190815260200160002090816112b39190612906565b505050565b60008073ffffffffffffffffffffffffffffffffffffffff166112da83610f85565b73ffffffffffffffffffffffffffffffffffffffff1614159050919050565b600181111561141957600073ffffffffffffffffffffffffffffffffffffffff168473ffffffffffffffffffffffffffffffffffffffff161461138d5780600360008673ffffffffffffffffffffffffffffffffffffffff1673ffffffffffffffffffffffffffffffffffffffff16815260200190815260200160002060008282546113859190612a07565b925050819055505b600073ffffffffffffffffffffffffffffffffffffffff168373ffffffffffffffffffffffffffffffffffffffff16146114185780600360008573ffffffffffffffffffffffffffffffffffffffff1673ffffffffffffffffffffffffffffffffffffffff16815260200190815260200160002060008282546114109190612a3b565b925050819055505b5b50505050565b50505050565b60006114468473ffffffffffffffffffffffffffffffffffffffff166116d5565b1561159f578373ffffffffffffffffffffffffffffffffffffffff1663150b7a0261146f610b36565b8786866040518563ffffffff1660e01b81526004016114919493929190612ac4565b6020604051808303816000875af19250505080156114cd57506040513d601f19601f820116820180604052508101906114ca9190612b25565b60015b61154f573d80600081146114fd576040519150601f19603f3d011682016040523d82523d6000602084013e611502565b606091505b506000815103611547576040517f08c379a000000000000000000000000000000000000000000000000000000000815260040161153e906126a8565b60405180910390fd5b805181602001fd5b63150b7a0260e01b7bffffffffffffffffffffffffffffffffffffffffffffffffffffffff1916817bffffffffffffffffffffffffffffffffffffffffffffffffffffffff1916149150506115a4565b600190505b949350505050565b6060600060016115bb846116f8565b01905060008167ffffffffffffffff8111156115da576115d9611e34565b5b6040519080825280601f01601f19166020018201604052801561160c5781602001600182028036833780820191505090505b509050600082602001820190505b60011561166f578080600190039150507f3031323334353637383961626364656600000000000000000000000000000000600a86061a8153600a858161166357611662612b52565b5b0494506000850361161a575b819350505050919050565b611684838361184b565b6116916000848484611425565b6116d0576040517f08c379a00000000000000000000000000000000000000000000000000000000081526004016116c7906126a8565b60405180910390fd5b505050565b6000808273ffffffffffffffffffffffffffffffffffffffff163b119050919050565b600080600090507a184f03e93ff9f4daa797ed6e38ed64bf6a1f0100000000000000008310611756577a184f03e93ff9f4daa797ed6e38ed64bf6a1f010000000000000000838161174c5761174b612b52565b5b0492506040810190505b6d04ee2d6d415b85acef81000000008310611793576d04ee2d6d415b85acef8100000000838161178957611788612b52565b5b0492506020810190505b662386f26fc1000083106117c257662386f26fc1000083816117b8576117b7612b52565b5b0492506010810190505b6305f5e10083106117eb576305f5e10083816117e1576117e0612b52565b5b0492506008810190505b612710831061181057612710838161180657611805612b52565b5b0492506004810190505b60648310611833576064838161182957611828612b52565b5b0492506002810190505b600a8310611842576001810190505b80915050919050565b600073ffffffffffffffffffffffffffffffffffffffff168273ffffffffffffffffffffffffffffffffffffffff16036118ba576040517f08c379a00000000000000000000000000000000000000000000000000000000081526004016118b190612bcd565b60405180910390fd5b6118c3816112b8565b15611903576040517f08c379a00000000000000000000000000000000000000000000000000000000081526004016118fa90612c39565b60405180910390fd5b6119116000838360016112f9565b61191a816112b8565b1561195a576040517f08c379a000000000000000000000000000000000000000000000000000000000815260040161195190612c39565b60405180910390fd5b6001600360008473ffffffffffffffffffffffffffffffffffffffff1673ffffffffffffffffffffffffffffffffffffffff16815260200190815260200160002060008282540192505081905550816002600083815260200190815260200160002060006101000a81548173ffffffffffffffffffffffffffffffffffffffff021916908373ffffffffffffffffffffffffffffffffffffffff160217905550808273ffffffffffffffffffffffffffffffffffffffff16600073ffffffffffffffffffffffffffffffffffffffff167fddf252ad1be2c89b69c2b068fc378daa952ba7f163c4a11628f55a4df523b3ef60405160405180910390a4611a6460008383600161141f565b5050565b6000604051905090565b600080fd5b600080fd5b60007fffffffff0000000000000000000000000000000000000000000000000000000082169050919050565b611ab181611a7c565b8114611abc57600080fd5b50565b600081359050611ace81611aa8565b92915050565b600060208284031215611aea57611ae9611a72565b5b6000611af884828501611abf565b91505092915050565b60008115159050919050565b611b1681611b01565b82525050565b6000602082019050611b316000830184611b0d565b92915050565b600081519050919050565b600082825260208201905092915050565b60005b83811015611b71578082015181840152602081019050611b56565b60008484015250505050565b6000601f19601f8301169050919050565b6000611b9982611b37565b611ba38185611b42565b9350611bb3818560208601611b53565b611bbc81611b7d565b840191505092915050565b60006020820190508181036000830152611be18184611b8e565b905092915050565b6000819050919050565b611bfc81611be9565b8114611c0757600080fd5b50565b600081359050611c1981611bf3565b92915050565b600060208284031215611c3557611c34611a72565b5b6000611c4384828501611c0a565b91505092915050565b600073ffffffffffffffffffffffffffffffffffffffff82169050919050565b6000611c7782611c4c565b9050919050565b611c8781611c6c565b82525050565b6000602082019050611ca26000830184611c7e565b92915050565b611cb181611c6c565b8114611cbc57600080fd5b50565b600081359050611cce81611ca8565b92915050565b60008060408385031215611ceb57611cea611a72565b5b6000611cf985828601611cbf565b9250506020611d0a85828601611c0a565b9150509250929050565b600080600060608486031215611d2d57611d2c611a72565b5b6000611d3b86828701611cbf565b9350506020611d4c86828701611cbf565b9250506040611d5d86828701611c0a565b9150509250925092565b600060208284031215611d7d57611d7c611a72565b5b6000611d8b84828501611cbf565b91505092915050565b611d9d81611be9565b82525050565b6000602082019050611db86000830184611d94565b92915050565b611dc781611b01565b8114611dd257600080fd5b50565b600081359050611de481611dbe565b92915050565b60008060408385031215611e0157611e00611a72565b5b6000611e0f85828601611cbf565b9250506020611e2085828601611dd5565b9150509250929050565b600080fd5b600080fd5b7f4e487b7100000000000000000000000000000000000000000000000000000000600052604160045260246000fd5b611e6c82611b7d565b810181811067ffffffffffffffff82111715611e8b57611e8a611e34565b5b80604052505050565b6000611e9e611a68565b9050611eaa8282611e63565b919050565b600067ffffffffffffffff821115611eca57611ec9611e34565b5b611ed382611b7d565b9050602081019050919050565b82818337600083830152505050565b6000611f02611efd84611eaf565b611e94565b905082815260208101848484011115611f1e57611f1d611e2f565b5b611f29848285611ee0565b509392505050565b600082601f830112611f4657611f45611e2a565b5b8135611f56848260208601611eef565b91505092915050565b60008060008060808587031215611f7957611f78611a72565b5b6000611f8787828801611cbf565b9450506020611f9887828801611cbf565b9350506040611fa987828801611c0a565b925050606085013567ffffffffffffffff811115611fca57611fc9611a77565b5b611fd687828801611f31565b91505092959194509250565b60008060408385031215611ff957611ff8611a72565b5b600061200785828601611cbf565b925050602061201885828601611cbf565b9150509250929050565b600067ffffffffffffffff82111561203d5761203c611e34565b5b61204682611b7d565b9050602081019050919050565b600061206661206184612022565b611e94565b90508281526020810184848401111561208257612081611e2f565b5b61208d848285611ee0565b509392505050565b600082601f8301126120aa576120a9611e2a565b5b81356120ba848260208601612053565b91505092915050565b6000806000606084860312156120dc576120db611a72565b5b60006120ea86828701611cbf565b93505060206120fb86828701611cbf565b925050604084013567ffffffffffffffff81111561211c5761211b611a77565b5b61212886828701612095565b9150509250925092565b7f4e487b7100000000000000000000000000000000000000000000000000000000600052602260045260246000fd5b6000600282049050600182168061217957607f821691505b60208210810361218c5761218b612132565b5b50919050565b7f4552433732313a20617070726f76616c20746f2063757272656e74206f776e6560008201527f7200000000000000000000000000000000000000000000000000000000000000602082015250565b60006121ee602183611b42565b91506121f982612192565b604082019050919050565b6000602082019050818103600083015261221d816121e1565b9050919050565b7f4552433732313a20617070726f76652063616c6c6572206973206e6f7420746f60008201527f6b656e206f776e6572206f7220617070726f76656420666f7220616c6c000000602082015250565b6000612280603d83611b42565b915061228b82612224565b604082019050919050565b600060208201905081810360008301526122af81612273565b9050919050565b7f4552433732313a2063616c6c6572206973206e6f7420746f6b656e206f776e6560008201527f72206f7220617070726f76656400000000000000000000000000000000000000602082015250565b6000612312602d83611b42565b915061231d826122b6565b604082019050919050565b6000602082019050818103600083015261234181612305565b9050919050565b7f4552433732313a20696e76616c696420746f6b656e2049440000000000000000600082015250565b600061237e601883611b42565b915061238982612348565b602082019050919050565b600060208201905081810360008301526123ad81612371565b9050919050565b7f4552433732313a2061646472657373207a65726f206973206e6f74206120766160008201527f6c6964206f776e65720000000000000000000000000000000000000000000000602082015250565b6000612410602983611b42565b915061241b826123b4565b604082019050919050565b6000602082019050818103600083015261243f81612403565b9050919050565b600081905092915050565b600061245c82611b37565b6124668185612446565b9350612476818560208601611b53565b80840191505092915050565b600061248e8285612451565b915061249a8284612451565b91508190509392505050565b7f4552433732313a207472616e736665722066726f6d20696e636f72726563742060008201527f6f776e6572000000000000000000000000000000000000000000000000000000602082015250565b6000612502602583611b42565b915061250d826124a6565b604082019050919050565b60006020820190508181036000830152612531816124f5565b9050919050565b7f4552433732313a207472616e7366657220746f20746865207a65726f2061646460008201527f7265737300000000000000000000000000000000000000000000000000000000602082015250565b6000612594602483611b42565b915061259f82612538565b604082019050919050565b600060208201905081810360008301526125c381612587565b9050919050565b7f4552433732313a20617070726f766520746f2063616c6c657200000000000000600082015250565b6000612600601983611b42565b915061260b826125ca565b602082019050919050565b6000602082019050818103600083015261262f816125f3565b9050919050565b7f4552433732313a207472616e7366657220746f206e6f6e20455243373231526560008201527f63656976657220696d706c656d656e7465720000000000000000000000000000602082015250565b6000612692603283611b42565b915061269d82612636565b604082019050919050565b600060208201905081810360008301526126c181612685565b9050919050565b7f45524337323155524953746f726167653a2055524920736574206f66206e6f6e60008201527f6578697374656e7420746f6b656e000000000000000000000000000000000000602082015250565b6000612724602e83611b42565b915061272f826126c8565b604082019050919050565b6000602082019050818103600083015261275381612717565b9050919050565b60008190508160005260206000209050919050565b60006020601f8301049050919050565b600082821b905092915050565b6000600883026127bc7fffffffffffffffffffffffffffffffffffffffffffffffffffffffffffffffff8261277f565b6127c6868361277f565b95508019841693508086168417925050509392505050565b6000819050919050565b60006128036127fe6127f984611be9565b6127de565b611be9565b9050919050565b6000819050919050565b61281d836127e8565b6128316128298261280a565b84845461278c565b825550505050565b600090565b612846612839565b612851818484612814565b505050565b5b818110156128755761286a60008261283e565b600181019050612857565b5050565b601f8211156128ba5761288b8161275a565b6128948461276f565b810160208510156128a3578190505b6128b76128af8561276f565b830182612856565b50505b505050565b600082821c905092915050565b60006128dd600019846008026128bf565b1980831691505092915050565b60006128f683836128cc565b9150826002028217905092915050565b61290f82611b37565b67ffffffffffffffff81111561292857612927611e34565b5b6129328254612161565b61293d828285612879565b600060209050601f831160018114612970576000841561295e578287015190505b61296885826128ea565b8655506129d0565b601f19841661297e8661275a565b60005b828110156129a657848901518255600182019150602085019450602081019050612981565b868310156129c357848901516129bf601f8916826128cc565b8355505b6001600288020188555050505b505050505050565b7f4e487b7100000000000000000000000000000000000000000000000000000000600052601160045260246000fd5b6000612a1282611be9565b9150612a1d83611be9565b9250828203905081811115612a3557612a346129d8565b5b92915050565b6000612a4682611be9565b9150612a5183611be9565b9250828201905080821115612a6957612a686129d8565b5b92915050565b600081519050919050565b600082825260208201905092915050565b6000612a9682612a6f565b612aa08185612a7a565b9350612ab0818560208601611b53565b612ab981611b7d565b840191505092915050565b6000608082019050612ad96000830187611c7e565b612ae66020830186611c7e565b612af36040830185611d94565b8181036060830152612b058184612a8b565b905095945050505050565b600081519050612b1f81611aa8565b92915050565b600060208284031215612b3b57612b3a611a72565b5b6000612b4984828501612b10565b91505092915050565b7f4e487b7100000000000000000000000000000000000000000000000000000000600052601260045260246000fd5b7f4552433732313a206d696e7420746f20746865207a65726f2061646472657373600082015250565b6000612bb7602083611b42565b9150612bc282612b81565b602082019050919050565b60006020820190508181036000830152612be681612baa565b9050919050565b7f4552433732313a20746f6b656e20616c7265616479206d696e74656400000000600082015250565b6000612c23601c83611b42565b9150612c2e82612bed565b602082019050919050565b60006020820190508181036000830152612c5281612c16565b905091905056fea26469706673582212206bdf66ab2bfa036f0d2f8f6b1e17fded1b31c47f1e8e319b3a50ee64ec51b8af64736f6c63430008110033",
    "linkReferences": {},
    "deployedLinkReferences": {}
}